{
  "_format": "hh-sol-artifact-1",
  "contractName": "Asset",
  "sourceName": "contracts/Asset.sol",
  "abi": [
    {
      "anonymous": false,
      "inputs": [
        {
          "indexed": false,
          "internalType": "address",
          "name": "newAddress",
          "type": "address"
        }
      ],
      "name": "TrustedBackendSignerChanged",
      "type": "event"
    },
    {
      "anonymous": false,
      "inputs": [
        {
          "indexed": true,
          "internalType": "address",
          "name": "user",
          "type": "address"
        },
        {
          "indexed": true,
          "internalType": "bytes12",
          "name": "assetID",
          "type": "bytes12"
        }
      ],
      "name": "assetAdded",
      "type": "event"
    },
    {
      "anonymous": false,
      "inputs": [
        {
          "indexed": true,
          "internalType": "address",
          "name": "user",
          "type": "address"
        },
        {
          "indexed": true,
          "internalType": "bytes12",
          "name": "assetID",
          "type": "bytes12"
        }
      ],
      "name": "assetDeleted",
      "type": "event"
    },
    {
      "anonymous": false,
      "inputs": [
        {
          "indexed": true,
          "internalType": "address",
          "name": "user",
          "type": "address"
        },
        {
          "indexed": true,
          "internalType": "bytes12",
          "name": "assetID",
          "type": "bytes12"
        }
      ],
      "name": "assetModified",
      "type": "event"
    },
    {
      "inputs": [
        {
          "internalType": "bytes12",
          "name": "assetID",
          "type": "bytes12"
        },
        {
          "internalType": "bytes32",
          "name": "assetHash",
          "type": "bytes32"
        }
      ],
      "name": "addAsset",
      "outputs": [],
      "stateMutability": "nonpayable",
      "type": "function"
    },
    {
      "inputs": [
        {
          "internalType": "bytes12",
          "name": "",
          "type": "bytes12"
        }
      ],
      "name": "assetMap",
      "outputs": [
        {
          "internalType": "bytes32",
          "name": "",
          "type": "bytes32"
        }
      ],
      "stateMutability": "view",
      "type": "function"
    },
    {
      "inputs": [
        {
          "internalType": "bytes12",
          "name": "assetID",
          "type": "bytes12"
        }
      ],
      "name": "deleteAsset",
      "outputs": [],
      "stateMutability": "nonpayable",
      "type": "function"
    },
    {
      "inputs": [
        {
          "internalType": "bytes12",
          "name": "assetID",
          "type": "bytes12"
        }
      ],
      "name": "getAssetHash",
      "outputs": [
        {
          "internalType": "bytes32",
          "name": "",
          "type": "bytes32"
        }
      ],
      "stateMutability": "view",
      "type": "function"
    },
    {
      "inputs": [
        {
          "internalType": "bytes12",
          "name": "assetID",
          "type": "bytes12"
        },
        {
          "internalType": "bytes32",
          "name": "newAssetHash",
          "type": "bytes32"
        }
      ],
      "name": "modifyAsset",
      "outputs": [],
      "stateMutability": "nonpayable",
      "type": "function"
    }
  ],
  "bytecode": "0x608060405234801561001057600080fd5b50610707806100206000396000f3fe608060405234801561001057600080fd5b50600436106100575760003560e01c80633fc7c0c41461005c5780637a7679f81461008c57806399eea5e3146100bc578063a210aa4c146100d8578063b0013b95146100f4575b600080fd5b6100766004803603810190610071919061051b565b610110565b6040516100839190610561565b60405180910390f35b6100a660048036038101906100a1919061051b565b6101df565b6040516100b39190610561565b60405180910390f35b6100d660048036038101906100d1919061051b565b6101f7565b005b6100f260048036038101906100ed91906105a8565b6102c7565b005b61010e600480360381019061010991906105a8565b6103f0565b005b60008060001b6000808473ffffffffffffffffffffffffffffffffffffffff191673ffffffffffffffffffffffffffffffffffffffff191681526020019081526020016000205403610197576040517f08c379a000000000000000000000000000000000000000000000000000000000815260040161018e90610645565b60405180910390fd5b6000808373ffffffffffffffffffffffffffffffffffffffff191673ffffffffffffffffffffffffffffffffffffffff19168152602001908152602001600020549050919050565b60006020528060005260406000206000915090505481565b6000801b6000808373ffffffffffffffffffffffffffffffffffffffff191673ffffffffffffffffffffffffffffffffffffffff19168152602001908152602001600020540361027c576040517f08c379a000000000000000000000000000000000000000000000000000000000815260040161027390610645565b60405180910390fd5b6000801b6000808373ffffffffffffffffffffffffffffffffffffffff191673ffffffffffffffffffffffffffffffffffffffff191681526020019081526020016000208190555050565b6000801b6000808473ffffffffffffffffffffffffffffffffffffffff191673ffffffffffffffffffffffffffffffffffffffff19168152602001908152602001600020541461034c576040517f08c379a0000000000000000000000000000000000000000000000000000000008152600401610343906106b1565b60405180910390fd5b806000808473ffffffffffffffffffffffffffffffffffffffff191673ffffffffffffffffffffffffffffffffffffffff19168152602001908152602001600020819055508173ffffffffffffffffffffffffffffffffffffffff19163373ffffffffffffffffffffffffffffffffffffffff167f9c7e6bd58285a509afc72640436c96869493d4fc27ee3d49fd99e5b364899db460405160405180910390a35050565b6000801b6000808473ffffffffffffffffffffffffffffffffffffffff191673ffffffffffffffffffffffffffffffffffffffff191681526020019081526020016000205403610475576040517f08c379a000000000000000000000000000000000000000000000000000000000815260040161046c90610645565b60405180910390fd5b806000808473ffffffffffffffffffffffffffffffffffffffff191673ffffffffffffffffffffffffffffffffffffffff19168152602001908152602001600020819055505050565b600080fd5b60007fffffffffffffffffffffffff000000000000000000000000000000000000000082169050919050565b6104f8816104c3565b811461050357600080fd5b50565b600081359050610515816104ef565b92915050565b600060208284031215610531576105306104be565b5b600061053f84828501610506565b91505092915050565b6000819050919050565b61055b81610548565b82525050565b60006020820190506105766000830184610552565b92915050565b61058581610548565b811461059057600080fd5b50565b6000813590506105a28161057c565b92915050565b600080604083850312156105bf576105be6104be565b5b60006105cd85828601610506565b92505060206105de85828601610593565b9150509250929050565b600082825260208201905092915050565b7f417373657420446f6573204e6f74204578697374000000000000000000000000600082015250565b600061062f6014836105e8565b915061063a826105f9565b602082019050919050565b6000602082019050818103600083015261065e81610622565b9050919050565b7f417373657420416c726561647920457869737473000000000000000000000000600082015250565b600061069b6014836105e8565b91506106a682610665565b602082019050919050565b600060208201905081810360008301526106ca8161068e565b905091905056fea2646970667358221220d36656d3032208ad759701976e84c69ebb68a7b18eae8caf40a7e10a1917928364736f6c63430008140033",
  "linkReferences": {},
  "deployedLinkReferences": {}
}