{
  "_format": "hh-sol-artifact-1",
  "contractName": "Tokenizer",
  "sourceName": "contracts/Tokenizer.sol",
  "abi": [
    {
      "inputs": [
        {
          "internalType": "string",
          "name": "_BASE_URL",
          "type": "string"
        },
        {
          "internalType": "address",
          "name": "adminAddress",
          "type": "address"
        }
      ],
      "stateMutability": "nonpayable",
      "type": "constructor"
    },
    {
      "inputs": [
        {
          "internalType": "address",
          "name": "sender",
          "type": "address"
        },
        {
          "internalType": "uint256",
          "name": "balance",
          "type": "uint256"
        },
        {
          "internalType": "uint256",
          "name": "needed",
          "type": "uint256"
        },
        {
          "internalType": "uint256",
          "name": "tokenId",
          "type": "uint256"
        }
      ],
      "name": "ERC1155InsufficientBalance",
      "type": "error"
    },
    {
      "inputs": [
        {
          "internalType": "address",
          "name": "approver",
          "type": "address"
        }
      ],
      "name": "ERC1155InvalidApprover",
      "type": "error"
    },
    {
      "inputs": [
        {
          "internalType": "uint256",
          "name": "idsLength",
          "type": "uint256"
        },
        {
          "internalType": "uint256",
          "name": "valuesLength",
          "type": "uint256"
        }
      ],
      "name": "ERC1155InvalidArrayLength",
      "type": "error"
    },
    {
      "inputs": [
        {
          "internalType": "address",
          "name": "operator",
          "type": "address"
        }
      ],
      "name": "ERC1155InvalidOperator",
      "type": "error"
    },
    {
      "inputs": [
        {
          "internalType": "address",
          "name": "receiver",
          "type": "address"
        }
      ],
      "name": "ERC1155InvalidReceiver",
      "type": "error"
    },
    {
      "inputs": [
        {
          "internalType": "address",
          "name": "sender",
          "type": "address"
        }
      ],
      "name": "ERC1155InvalidSender",
      "type": "error"
    },
    {
      "inputs": [
        {
          "internalType": "address",
          "name": "operator",
          "type": "address"
        },
        {
          "internalType": "address",
          "name": "owner",
          "type": "address"
        }
      ],
      "name": "ERC1155MissingApprovalForAll",
      "type": "error"
    },
    {
      "anonymous": false,
      "inputs": [
        {
          "indexed": true,
          "internalType": "address",
          "name": "account",
          "type": "address"
        },
        {
          "indexed": true,
          "internalType": "address",
          "name": "operator",
          "type": "address"
        },
        {
          "indexed": false,
          "internalType": "bool",
          "name": "approved",
          "type": "bool"
        }
      ],
      "name": "ApprovalForAll",
      "type": "event"
    },
    {
      "anonymous": false,
      "inputs": [
        {
          "indexed": true,
          "internalType": "address",
          "name": "fromAccount",
          "type": "address"
        },
        {
          "indexed": true,
          "internalType": "address",
          "name": "toAccount",
          "type": "address"
        },
        {
          "indexed": true,
          "internalType": "bytes12",
          "name": "assetID",
          "type": "bytes12"
        },
        {
          "indexed": false,
          "internalType": "uint256",
          "name": "amount",
          "type": "uint256"
        }
      ],
      "name": "AssetTokenTransferred",
      "type": "event"
    },
    {
      "anonymous": false,
      "inputs": [
        {
          "indexed": true,
          "internalType": "bytes12",
          "name": "assetID",
          "type": "bytes12"
        }
      ],
      "name": "AssetTokenized",
      "type": "event"
    },
    {
      "anonymous": false,
      "inputs": [
        {
          "indexed": true,
          "internalType": "address",
          "name": "operator",
          "type": "address"
        },
        {
          "indexed": true,
          "internalType": "address",
          "name": "from",
          "type": "address"
        },
        {
          "indexed": true,
          "internalType": "address",
          "name": "to",
          "type": "address"
        },
        {
          "indexed": false,
          "internalType": "uint256[]",
          "name": "ids",
          "type": "uint256[]"
        },
        {
          "indexed": false,
          "internalType": "uint256[]",
          "name": "values",
          "type": "uint256[]"
        }
      ],
      "name": "TransferBatch",
      "type": "event"
    },
    {
      "anonymous": false,
      "inputs": [
        {
          "indexed": true,
          "internalType": "address",
          "name": "operator",
          "type": "address"
        },
        {
          "indexed": true,
          "internalType": "address",
          "name": "from",
          "type": "address"
        },
        {
          "indexed": true,
          "internalType": "address",
          "name": "to",
          "type": "address"
        },
        {
          "indexed": false,
          "internalType": "uint256",
          "name": "id",
          "type": "uint256"
        },
        {
          "indexed": false,
          "internalType": "uint256",
          "name": "value",
          "type": "uint256"
        }
      ],
      "name": "TransferSingle",
      "type": "event"
    },
    {
      "anonymous": false,
      "inputs": [
        {
          "indexed": false,
          "internalType": "string",
          "name": "value",
          "type": "string"
        },
        {
          "indexed": true,
          "internalType": "uint256",
          "name": "id",
          "type": "uint256"
        }
      ],
      "name": "URI",
      "type": "event"
    },
    {
      "inputs": [
        {
          "internalType": "bytes12",
          "name": "",
          "type": "bytes12"
        }
      ],
      "name": "assetTokenMap",
      "outputs": [
        {
          "internalType": "uint256",
          "name": "",
          "type": "uint256"
        }
      ],
      "stateMutability": "view",
      "type": "function"
    },
    {
      "inputs": [
        {
          "internalType": "address",
          "name": "account",
          "type": "address"
        },
        {
          "internalType": "uint256",
          "name": "id",
          "type": "uint256"
        }
      ],
      "name": "balanceOf",
      "outputs": [
        {
          "internalType": "uint256",
          "name": "",
          "type": "uint256"
        }
      ],
      "stateMutability": "view",
      "type": "function"
    },
    {
      "inputs": [
        {
          "internalType": "address[]",
          "name": "accounts",
          "type": "address[]"
        },
        {
          "internalType": "uint256[]",
          "name": "ids",
          "type": "uint256[]"
        }
      ],
      "name": "balanceOfBatch",
      "outputs": [
        {
          "internalType": "uint256[]",
          "name": "",
          "type": "uint256[]"
        }
      ],
      "stateMutability": "view",
      "type": "function"
    },
    {
      "inputs": [
        {
          "internalType": "uint256",
          "name": "amount",
          "type": "uint256"
        },
        {
          "internalType": "bytes12",
          "name": "assetID",
          "type": "bytes12"
        }
      ],
      "name": "burnAssetToken",
      "outputs": [],
      "stateMutability": "nonpayable",
      "type": "function"
    },
    {
      "inputs": [
        {
          "internalType": "bytes12",
          "name": "assetID",
          "type": "bytes12"
        },
        {
          "internalType": "uint256",
          "name": "amount",
          "type": "uint256"
        }
      ],
      "name": "claimAssetToken",
      "outputs": [],
      "stateMutability": "nonpayable",
      "type": "function"
    },
    {
      "inputs": [
        {
          "internalType": "address",
          "name": "fromAddress",
          "type": "address"
        },
        {
          "internalType": "bytes12",
          "name": "assetID",
          "type": "bytes12"
        }
      ],
      "name": "getAssetTokenBalance",
      "outputs": [
        {
          "internalType": "uint256",
          "name": "",
          "type": "uint256"
        }
      ],
      "stateMutability": "view",
      "type": "function"
    },
    {
      "inputs": [
        {
          "internalType": "bytes12",
          "name": "assetID",
          "type": "bytes12"
        }
      ],
      "name": "getAssetTokenTotalSupply",
      "outputs": [
        {
          "internalType": "uint256",
          "name": "",
          "type": "uint256"
        }
      ],
      "stateMutability": "view",
      "type": "function"
    },
    {
      "inputs": [
        {
          "internalType": "address",
          "name": "account",
          "type": "address"
        },
        {
          "internalType": "address",
          "name": "operator",
          "type": "address"
        }
      ],
      "name": "isApprovedForAll",
      "outputs": [
        {
          "internalType": "bool",
          "name": "",
          "type": "bool"
        }
      ],
      "stateMutability": "view",
      "type": "function"
    },
    {
      "inputs": [
        {
          "internalType": "bytes12",
          "name": "assetID",
          "type": "bytes12"
        },
        {
          "internalType": "uint256",
          "name": "amount",
          "type": "uint256"
        }
      ],
      "name": "mintAssetTokens",
      "outputs": [],
      "stateMutability": "nonpayable",
      "type": "function"
    },
    {
      "inputs": [
        {
          "internalType": "address",
          "name": "from",
          "type": "address"
        },
        {
          "internalType": "address",
          "name": "to",
          "type": "address"
        },
        {
          "internalType": "uint256[]",
          "name": "ids",
          "type": "uint256[]"
        },
        {
          "internalType": "uint256[]",
          "name": "values",
          "type": "uint256[]"
        },
        {
          "internalType": "bytes",
          "name": "data",
          "type": "bytes"
        }
      ],
      "name": "safeBatchTransferFrom",
      "outputs": [],
      "stateMutability": "nonpayable",
      "type": "function"
    },
    {
      "inputs": [
        {
          "internalType": "address",
          "name": "from",
          "type": "address"
        },
        {
          "internalType": "address",
          "name": "to",
          "type": "address"
        },
        {
          "internalType": "uint256",
          "name": "id",
          "type": "uint256"
        },
        {
          "internalType": "uint256",
          "name": "value",
          "type": "uint256"
        },
        {
          "internalType": "bytes",
          "name": "data",
          "type": "bytes"
        }
      ],
      "name": "safeTransferFrom",
      "outputs": [],
      "stateMutability": "nonpayable",
      "type": "function"
    },
    {
      "inputs": [
        {
          "internalType": "address",
          "name": "operator",
          "type": "address"
        },
        {
          "internalType": "bool",
          "name": "approved",
          "type": "bool"
        }
      ],
      "name": "setApprovalForAll",
      "outputs": [],
      "stateMutability": "nonpayable",
      "type": "function"
    },
    {
      "inputs": [
        {
          "internalType": "bytes4",
          "name": "interfaceId",
          "type": "bytes4"
        }
      ],
      "name": "supportsInterface",
      "outputs": [
        {
          "internalType": "bool",
          "name": "",
          "type": "bool"
        }
      ],
      "stateMutability": "view",
      "type": "function"
    },
    {
      "inputs": [
        {
          "internalType": "bytes12",
          "name": "",
          "type": "bytes12"
        }
      ],
      "name": "totalAssetTokenSupplyMap",
      "outputs": [
        {
          "internalType": "uint256",
          "name": "",
          "type": "uint256"
        }
      ],
      "stateMutability": "view",
      "type": "function"
    },
    {
      "inputs": [
        {
          "internalType": "uint256",
          "name": "tokenID",
          "type": "uint256"
        }
      ],
      "name": "uri",
      "outputs": [
        {
          "internalType": "string",
          "name": "",
          "type": "string"
        }
      ],
      "stateMutability": "view",
      "type": "function"
    }
  ],
  "bytecode": "0x608060405260016004553480156200001657600080fd5b50604051620030a2380380620030a283398181016040528101906200003c91906200030d565b604051806020016040528060008152506200005d816200010060201b60201c565b506000825111620000a5576040517f08c379a00000000000000000000000000000000000000000000000000000000081526004016200009c90620003d4565b60405180910390fd5b8160039081620000b6919062000641565b5080600560006101000a81548173ffffffffffffffffffffffffffffffffffffffff021916908373ffffffffffffffffffffffffffffffffffffffff160217905550505062000728565b806002908162000111919062000641565b5050565b6000604051905090565b600080fd5b600080fd5b600080fd5b600080fd5b6000601f19601f8301169050919050565b7f4e487b7100000000000000000000000000000000000000000000000000000000600052604160045260246000fd5b6200017e8262000133565b810181811067ffffffffffffffff82111715620001a0576200019f62000144565b5b80604052505050565b6000620001b562000115565b9050620001c3828262000173565b919050565b600067ffffffffffffffff821115620001e657620001e562000144565b5b620001f18262000133565b9050602081019050919050565b60005b838110156200021e57808201518184015260208101905062000201565b60008484015250505050565b6000620002416200023b84620001c8565b620001a9565b90508281526020810184848401111562000260576200025f6200012e565b5b6200026d848285620001fe565b509392505050565b600082601f8301126200028d576200028c62000129565b5b81516200029f8482602086016200022a565b91505092915050565b600073ffffffffffffffffffffffffffffffffffffffff82169050919050565b6000620002d582620002a8565b9050919050565b620002e781620002c8565b8114620002f357600080fd5b50565b6000815190506200030781620002dc565b92915050565b600080604083850312156200032757620003266200011f565b5b600083015167ffffffffffffffff81111562000348576200034762000124565b5b620003568582860162000275565b92505060206200036985828601620002f6565b9150509250929050565b600082825260208201905092915050565b7f424153452055524c20494e56414c494400000000000000000000000000000000600082015250565b6000620003bc60108362000373565b9150620003c98262000384565b602082019050919050565b60006020820190508181036000830152620003ef81620003ad565b9050919050565b600081519050919050565b7f4e487b7100000000000000000000000000000000000000000000000000000000600052602260045260246000fd5b600060028204905060018216806200044957607f821691505b6020821081036200045f576200045e62000401565b5b50919050565b60008190508160005260206000209050919050565b60006020601f8301049050919050565b600082821b905092915050565b600060088302620004c97fffffffffffffffffffffffffffffffffffffffffffffffffffffffffffffffff826200048a565b620004d586836200048a565b95508019841693508086168417925050509392505050565b6000819050919050565b6000819050919050565b6000620005226200051c6200051684620004ed565b620004f7565b620004ed565b9050919050565b6000819050919050565b6200053e8362000501565b620005566200054d8262000529565b84845462000497565b825550505050565b600090565b6200056d6200055e565b6200057a81848462000533565b505050565b5b81811015620005a2576200059660008262000563565b60018101905062000580565b5050565b601f821115620005f157620005bb8162000465565b620005c6846200047a565b81016020851015620005d6578190505b620005ee620005e5856200047a565b8301826200057f565b50505b505050565b600082821c905092915050565b60006200061660001984600802620005f6565b1980831691505092915050565b600062000631838362000603565b9150826002028217905092915050565b6200064c82620003f6565b67ffffffffffffffff81111562000668576200066762000144565b5b62000674825462000430565b62000681828285620005a6565b600060209050601f831160018114620006b95760008415620006a4578287015190505b620006b0858262000623565b86555062000720565b601f198416620006c98662000465565b60005b82811015620006f357848901518255600182019150602085019450602081019050620006cc565b868310156200071357848901516200070f601f89168262000603565b8355505b6001600288020188555050505b505050505050565b61296a80620007386000396000f3fe608060405234801561001057600080fd5b50600436106100f45760003560e01c80638ca482e211610097578063b99d522b11610066578063b99d522b146102b9578063ca7bc5a4146102d5578063e985e9c514610305578063f242432a14610335576100f4565b80638ca482e21461020d578063a22cb4651461023d578063a4c2a62414610259578063b34d094e14610289576100f4565b80631ef98689116100d35780631ef98689146101895780632eb2c2d6146101a55780634c02ddda146101c15780634e1273f4146101dd576100f4565b8062fdd58e146100f957806301ffc9a7146101295780630e89341c14610159575b600080fd5b610113600480360381019061010e9190611a87565b610351565b6040516101209190611ad6565b60405180910390f35b610143600480360381019061013e9190611b49565b6103ab565b6040516101509190611b91565b60405180910390f35b610173600480360381019061016e9190611bac565b61048d565b6040516101809190611c69565b60405180910390f35b6101a3600480360381019061019e9190611ce3565b6104b9565b005b6101bf60048036038101906101ba9190611f20565b610509565b005b6101db60048036038101906101d69190611fef565b6105b1565b005b6101f760048036038101906101f291906120f2565b6106d3565b6040516102049190612228565b60405180910390f35b6102276004803603810190610222919061224a565b6107e2565b6040516102349190611ad6565b60405180910390f35b610257600480360381019061025291906122a3565b6107fa565b005b610273600480360381019061026e91906122e3565b610810565b6040516102809190611ad6565b60405180910390f35b6102a3600480360381019061029e919061224a565b610865565b6040516102b09190611ad6565b60405180910390f35b6102d360048036038101906102ce9190611fef565b6108b0565b005b6102ef60048036038101906102ea919061224a565b610b46565b6040516102fc9190611ad6565b60405180910390f35b61031f600480360381019061031a9190612323565b610b5e565b60405161032c9190611b91565b60405180910390f35b61034f600480360381019061034a9190612363565b610bf2565b005b600080600083815260200190815260200160002060008473ffffffffffffffffffffffffffffffffffffffff1673ffffffffffffffffffffffffffffffffffffffff16815260200190815260200160002054905092915050565b60007fd9b67a26000000000000000000000000000000000000000000000000000000007bffffffffffffffffffffffffffffffffffffffffffffffffffffffff1916827bffffffffffffffffffffffffffffffffffffffffffffffffffffffff1916148061047657507f0e89341c000000000000000000000000000000000000000000000000000000007bffffffffffffffffffffffffffffffffffffffffffffffffffffffff1916827bffffffffffffffffffffffffffffffffffffffffffffffffffffffff1916145b80610486575061048582610c9a565b5b9050919050565b60606003826040516020016104a392919061256a565b6040516020818303038152906040529050919050565b61050533600760008473ffffffffffffffffffffffffffffffffffffffff191673ffffffffffffffffffffffffffffffffffffffff191681526020019081526020016000205484610d04565b5050565b6000610513610dab565b90508073ffffffffffffffffffffffffffffffffffffffff168673ffffffffffffffffffffffffffffffffffffffff161415801561055857506105568682610b5e565b155b1561059c5780866040517fe237d9220000000000000000000000000000000000000000000000000000000081526004016105939291906125ac565b60405180910390fd5b6105a98686868686610db3565b505050505050565b610630600560009054906101000a900473ffffffffffffffffffffffffffffffffffffffff1633600760008673ffffffffffffffffffffffffffffffffffffffff191673ffffffffffffffffffffffffffffffffffffffff19168152602001908152602001600020548460405180602001604052806000815250610eab565b8173ffffffffffffffffffffffffffffffffffffffff19163373ffffffffffffffffffffffffffffffffffffffff16600560009054906101000a900473ffffffffffffffffffffffffffffffffffffffff1673ffffffffffffffffffffffffffffffffffffffff167fd1b73e0d58e0723dc7d060bdb74afa7a5e6da1852c353e2ec69bfd55766fde22846040516106c79190611ad6565b60405180910390a45050565b6060815183511461071f57815183516040517f5b0599910000000000000000000000000000000000000000000000000000000081526004016107169291906125d5565b60405180910390fd5b6000835167ffffffffffffffff81111561073c5761073b611d28565b5b60405190808252806020026020018201604052801561076a5781602001602082028036833780820191505090505b50905060005b84518110156107d7576107a761078f8287610fb690919063ffffffff16565b6107a28387610fca90919063ffffffff16565b610351565b8282815181106107ba576107b96125fe565b5b602002602001018181525050806107d09061265c565b9050610770565b508091505092915050565b60076020528060005260406000206000915090505481565b61080c610805610dab565b8383610fde565b5050565b600061085d83600760008573ffffffffffffffffffffffffffffffffffffffff191673ffffffffffffffffffffffffffffffffffffffff1916815260200190815260200160002054610351565b905092915050565b6000600660008373ffffffffffffffffffffffffffffffffffffffff191673ffffffffffffffffffffffffffffffffffffffff19168152602001908152602001600020549050919050565b6000600660008473ffffffffffffffffffffffffffffffffffffffff191673ffffffffffffffffffffffffffffffffffffffff191681526020019081526020016000205414610934576040517f08c379a000000000000000000000000000000000000000000000000000000000815260040161092b906126f0565b60405180910390fd5b6000600760008473ffffffffffffffffffffffffffffffffffffffff191673ffffffffffffffffffffffffffffffffffffffff1916815260200190815260200160002054036109de57600454600760008473ffffffffffffffffffffffffffffffffffffffff191673ffffffffffffffffffffffffffffffffffffffff1916815260200190815260200160002081905550600460008154809291906109d89061265c565b91905055505b610a3a33600760008573ffffffffffffffffffffffffffffffffffffffff191673ffffffffffffffffffffffffffffffffffffffff1916815260200190815260200160002054836040518060200160405280600081525061114e565b80600660008473ffffffffffffffffffffffffffffffffffffffff191673ffffffffffffffffffffffffffffffffffffffff19168152602001908152602001600020819055508173ffffffffffffffffffffffffffffffffffffffff19167f8a63c7add7256b0dc939e66d6fdb4bbbad8a62bb83cd8e634efc74760957399a60405160405180910390a28173ffffffffffffffffffffffffffffffffffffffff19163373ffffffffffffffffffffffffffffffffffffffff16600073ffffffffffffffffffffffffffffffffffffffff167fd1b73e0d58e0723dc7d060bdb74afa7a5e6da1852c353e2ec69bfd55766fde2284604051610b3a9190611ad6565b60405180910390a45050565b60066020528060005260406000206000915090505481565b6000600160008473ffffffffffffffffffffffffffffffffffffffff1673ffffffffffffffffffffffffffffffffffffffff16815260200190815260200160002060008373ffffffffffffffffffffffffffffffffffffffff1673ffffffffffffffffffffffffffffffffffffffff16815260200190815260200160002060009054906101000a900460ff16905092915050565b6000610bfc610dab565b90508073ffffffffffffffffffffffffffffffffffffffff168673ffffffffffffffffffffffffffffffffffffffff1614158015610c415750610c3f8682610b5e565b155b15610c855780866040517fe237d922000000000000000000000000000000000000000000000000000000008152600401610c7c9291906125ac565b60405180910390fd5b610c928686868686610eab565b505050505050565b60007f01ffc9a7000000000000000000000000000000000000000000000000000000007bffffffffffffffffffffffffffffffffffffffffffffffffffffffff1916827bffffffffffffffffffffffffffffffffffffffffffffffffffffffff1916149050919050565b600073ffffffffffffffffffffffffffffffffffffffff168373ffffffffffffffffffffffffffffffffffffffff1603610d765760006040517f01a83514000000000000000000000000000000000000000000000000000000008152600401610d6d9190612710565b60405180910390fd5b600080610d8384846111e7565b91509150610da4856000848460405180602001604052806000815250611217565b5050505050565b600033905090565b600073ffffffffffffffffffffffffffffffffffffffff168473ffffffffffffffffffffffffffffffffffffffff1603610e255760006040517f57f447ce000000000000000000000000000000000000000000000000000000008152600401610e1c9190612710565b60405180910390fd5b600073ffffffffffffffffffffffffffffffffffffffff168573ffffffffffffffffffffffffffffffffffffffff1603610e975760006040517f01a83514000000000000000000000000000000000000000000000000000000008152600401610e8e9190612710565b60405180910390fd5b610ea48585858585611217565b5050505050565b600073ffffffffffffffffffffffffffffffffffffffff168473ffffffffffffffffffffffffffffffffffffffff1603610f1d5760006040517f57f447ce000000000000000000000000000000000000000000000000000000008152600401610f149190612710565b60405180910390fd5b600073ffffffffffffffffffffffffffffffffffffffff168573ffffffffffffffffffffffffffffffffffffffff1603610f8f5760006040517f01a83514000000000000000000000000000000000000000000000000000000008152600401610f869190612710565b60405180910390fd5b600080610f9c85856111e7565b91509150610fad8787848487611217565b50505050505050565b600060208202602084010151905092915050565b600060208202602084010151905092915050565b600073ffffffffffffffffffffffffffffffffffffffff168273ffffffffffffffffffffffffffffffffffffffff16036110505760006040517fced3e1000000000000000000000000000000000000000000000000000000000081526004016110479190612710565b60405180910390fd5b80600160008573ffffffffffffffffffffffffffffffffffffffff1673ffffffffffffffffffffffffffffffffffffffff16815260200190815260200160002060008473ffffffffffffffffffffffffffffffffffffffff1673ffffffffffffffffffffffffffffffffffffffff16815260200190815260200160002060006101000a81548160ff0219169083151502179055508173ffffffffffffffffffffffffffffffffffffffff168373ffffffffffffffffffffffffffffffffffffffff167f17307eab39ab6107e8899845ad3d59bd9653f200f220920489ca2b5937696c31836040516111419190611b91565b60405180910390a3505050565b600073ffffffffffffffffffffffffffffffffffffffff168473ffffffffffffffffffffffffffffffffffffffff16036111c05760006040517f57f447ce0000000000000000000000000000000000000000000000000000000081526004016111b79190612710565b60405180910390fd5b6000806111cd85856111e7565b915091506111df600087848487611217565b505050505050565b60608060405191506001825283602083015260408201905060018152826020820152604081016040529250929050565b611223858585856112c9565b600073ffffffffffffffffffffffffffffffffffffffff168473ffffffffffffffffffffffffffffffffffffffff16146112c2576000611261610dab565b905060018451036112b1576000611282600086610fca90919063ffffffff16565b9050600061129a600086610fca90919063ffffffff16565b90506112aa838989858589611677565b50506112c0565b6112bf81878787878761182b565b5b505b5050505050565b805182511461131357815181516040517f5b05999100000000000000000000000000000000000000000000000000000000815260040161130a9291906125d5565b60405180910390fd5b600061131d610dab565b905060005b83518110156115325760006113408286610fca90919063ffffffff16565b905060006113578386610fca90919063ffffffff16565b9050600073ffffffffffffffffffffffffffffffffffffffff168873ffffffffffffffffffffffffffffffffffffffff161461148457600080600084815260200190815260200160002060008a73ffffffffffffffffffffffffffffffffffffffff1673ffffffffffffffffffffffffffffffffffffffff1681526020019081526020016000205490508181101561142c57888183856040517f03dee4c5000000000000000000000000000000000000000000000000000000008152600401611423949392919061272b565b60405180910390fd5b81810360008085815260200190815260200160002060008b73ffffffffffffffffffffffffffffffffffffffff1673ffffffffffffffffffffffffffffffffffffffff16815260200190815260200160002081905550505b600073ffffffffffffffffffffffffffffffffffffffff168773ffffffffffffffffffffffffffffffffffffffff161461151f578060008084815260200190815260200160002060008973ffffffffffffffffffffffffffffffffffffffff1673ffffffffffffffffffffffffffffffffffffffff16815260200190815260200160002060008282546115179190612770565b925050819055505b50508061152b9061265c565b9050611322565b5060018351036115f1576000611552600085610fca90919063ffffffff16565b9050600061156a600085610fca90919063ffffffff16565b90508573ffffffffffffffffffffffffffffffffffffffff168773ffffffffffffffffffffffffffffffffffffffff168473ffffffffffffffffffffffffffffffffffffffff167fc3d58168c5ae7397731d063d5bbf3d657854427343f4c083240f7aacaa2d0f6285856040516115e29291906125d5565b60405180910390a45050611670565b8373ffffffffffffffffffffffffffffffffffffffff168573ffffffffffffffffffffffffffffffffffffffff168273ffffffffffffffffffffffffffffffffffffffff167f4a39dc06d4c0dbc64b70af90fd698a233a518aa5d07e595d983b8c0526c8f7fb86866040516116679291906127a4565b60405180910390a45b5050505050565b60008473ffffffffffffffffffffffffffffffffffffffff163b1115611823578373ffffffffffffffffffffffffffffffffffffffff1663f23a6e6187878686866040518663ffffffff1660e01b81526004016116d8959493929190612830565b6020604051808303816000875af192505050801561171457506040513d601f19601f82011682018060405250810190611711919061289f565b60015b611798573d8060008114611744576040519150601f19603f3d011682016040523d82523d6000602084013e611749565b606091505b50600081510361179057846040517f57f447ce0000000000000000000000000000000000000000000000000000000081526004016117879190612710565b60405180910390fd5b805181602001fd5b63f23a6e6160e01b7bffffffffffffffffffffffffffffffffffffffffffffffffffffffff1916817bffffffffffffffffffffffffffffffffffffffffffffffffffffffff19161461182157846040517f57f447ce0000000000000000000000000000000000000000000000000000000081526004016118189190612710565b60405180910390fd5b505b505050505050565b60008473ffffffffffffffffffffffffffffffffffffffff163b11156119d7578373ffffffffffffffffffffffffffffffffffffffff1663bc197c8187878686866040518663ffffffff1660e01b815260040161188c9594939291906128cc565b6020604051808303816000875af19250505080156118c857506040513d601f19601f820116820180604052508101906118c5919061289f565b60015b61194c573d80600081146118f8576040519150601f19603f3d011682016040523d82523d6000602084013e6118fd565b606091505b50600081510361194457846040517f57f447ce00000000000000000000000000000000000000000000000000000000815260040161193b9190612710565b60405180910390fd5b805181602001fd5b63bc197c8160e01b7bffffffffffffffffffffffffffffffffffffffffffffffffffffffff1916817bffffffffffffffffffffffffffffffffffffffffffffffffffffffff1916146119d557846040517f57f447ce0000000000000000000000000000000000000000000000000000000081526004016119cc9190612710565b60405180910390fd5b505b505050505050565b6000604051905090565b600080fd5b600080fd5b600073ffffffffffffffffffffffffffffffffffffffff82169050919050565b6000611a1e826119f3565b9050919050565b611a2e81611a13565b8114611a3957600080fd5b50565b600081359050611a4b81611a25565b92915050565b6000819050919050565b611a6481611a51565b8114611a6f57600080fd5b50565b600081359050611a8181611a5b565b92915050565b60008060408385031215611a9e57611a9d6119e9565b5b6000611aac85828601611a3c565b9250506020611abd85828601611a72565b9150509250929050565b611ad081611a51565b82525050565b6000602082019050611aeb6000830184611ac7565b92915050565b60007fffffffff0000000000000000000000000000000000000000000000000000000082169050919050565b611b2681611af1565b8114611b3157600080fd5b50565b600081359050611b4381611b1d565b92915050565b600060208284031215611b5f57611b5e6119e9565b5b6000611b6d84828501611b34565b91505092915050565b60008115159050919050565b611b8b81611b76565b82525050565b6000602082019050611ba66000830184611b82565b92915050565b600060208284031215611bc257611bc16119e9565b5b6000611bd084828501611a72565b91505092915050565b600081519050919050565b600082825260208201905092915050565b60005b83811015611c13578082015181840152602081019050611bf8565b60008484015250505050565b6000601f19601f8301169050919050565b6000611c3b82611bd9565b611c458185611be4565b9350611c55818560208601611bf5565b611c5e81611c1f565b840191505092915050565b60006020820190508181036000830152611c838184611c30565b905092915050565b60007fffffffffffffffffffffffff000000000000000000000000000000000000000082169050919050565b611cc081611c8b565b8114611ccb57600080fd5b50565b600081359050611cdd81611cb7565b92915050565b60008060408385031215611cfa57611cf96119e9565b5b6000611d0885828601611a72565b9250506020611d1985828601611cce565b9150509250929050565b600080fd5b7f4e487b7100000000000000000000000000000000000000000000000000000000600052604160045260246000fd5b611d6082611c1f565b810181811067ffffffffffffffff82111715611d7f57611d7e611d28565b5b80604052505050565b6000611d926119df565b9050611d9e8282611d57565b919050565b600067ffffffffffffffff821115611dbe57611dbd611d28565b5b602082029050602081019050919050565b600080fd5b6000611de7611de284611da3565b611d88565b90508083825260208201905060208402830185811115611e0a57611e09611dcf565b5b835b81811015611e335780611e1f8882611a72565b845260208401935050602081019050611e0c565b5050509392505050565b600082601f830112611e5257611e51611d23565b5b8135611e62848260208601611dd4565b91505092915050565b600080fd5b600067ffffffffffffffff821115611e8b57611e8a611d28565b5b611e9482611c1f565b9050602081019050919050565b82818337600083830152505050565b6000611ec3611ebe84611e70565b611d88565b905082815260208101848484011115611edf57611ede611e6b565b5b611eea848285611ea1565b509392505050565b600082601f830112611f0757611f06611d23565b5b8135611f17848260208601611eb0565b91505092915050565b600080600080600060a08688031215611f3c57611f3b6119e9565b5b6000611f4a88828901611a3c565b9550506020611f5b88828901611a3c565b945050604086013567ffffffffffffffff811115611f7c57611f7b6119ee565b5b611f8888828901611e3d565b935050606086013567ffffffffffffffff811115611fa957611fa86119ee565b5b611fb588828901611e3d565b925050608086013567ffffffffffffffff811115611fd657611fd56119ee565b5b611fe288828901611ef2565b9150509295509295909350565b60008060408385031215612006576120056119e9565b5b600061201485828601611cce565b925050602061202585828601611a72565b9150509250929050565b600067ffffffffffffffff82111561204a57612049611d28565b5b602082029050602081019050919050565b600061206e6120698461202f565b611d88565b9050808382526020820190506020840283018581111561209157612090611dcf565b5b835b818110156120ba57806120a68882611a3c565b845260208401935050602081019050612093565b5050509392505050565b600082601f8301126120d9576120d8611d23565b5b81356120e984826020860161205b565b91505092915050565b60008060408385031215612109576121086119e9565b5b600083013567ffffffffffffffff811115612127576121266119ee565b5b612133858286016120c4565b925050602083013567ffffffffffffffff811115612154576121536119ee565b5b61216085828601611e3d565b9150509250929050565b600081519050919050565b600082825260208201905092915050565b6000819050602082019050919050565b61219f81611a51565b82525050565b60006121b18383612196565b60208301905092915050565b6000602082019050919050565b60006121d58261216a565b6121df8185612175565b93506121ea83612186565b8060005b8381101561221b57815161220288826121a5565b975061220d836121bd565b9250506001810190506121ee565b5085935050505092915050565b6000602082019050818103600083015261224281846121ca565b905092915050565b6000602082840312156122605761225f6119e9565b5b600061226e84828501611cce565b91505092915050565b61228081611b76565b811461228b57600080fd5b50565b60008135905061229d81612277565b92915050565b600080604083850312156122ba576122b96119e9565b5b60006122c885828601611a3c565b92505060206122d98582860161228e565b9150509250929050565b600080604083850312156122fa576122f96119e9565b5b600061230885828601611a3c565b925050602061231985828601611cce565b9150509250929050565b6000806040838503121561233a576123396119e9565b5b600061234885828601611a3c565b925050602061235985828601611a3c565b9150509250929050565b600080600080600060a0868803121561237f5761237e6119e9565b5b600061238d88828901611a3c565b955050602061239e88828901611a3c565b94505060406123af88828901611a72565b93505060606123c088828901611a72565b925050608086013567ffffffffffffffff8111156123e1576123e06119ee565b5b6123ed88828901611ef2565b9150509295509295909350565b7f4e487b7100000000000000000000000000000000000000000000000000000000600052602260045260246000fd5b6000600282049050600182168061244157607f821691505b602082108103612454576124536123fa565b5b50919050565b600081905092915050565b60008190508160005260206000209050919050565b6000815461248781612429565b612491818661245a565b945060018216600081146124ac57600181146124c1576124f4565b60ff19831686528115158202860193506124f4565b6124ca85612465565b60005b838110156124ec578154818901526001820191506020810190506124cd565b838801955050505b50505092915050565b6000819050919050565b61251861251382611a51565b6124fd565b82525050565b7f2f00000000000000000000000000000000000000000000000000000000000000600082015250565b600061255460018361245a565b915061255f8261251e565b600182019050919050565b6000612576828561247a565b91506125828284612507565b60208201915061259182612547565b91508190509392505050565b6125a681611a13565b82525050565b60006040820190506125c1600083018561259d565b6125ce602083018461259d565b9392505050565b60006040820190506125ea6000830185611ac7565b6125f76020830184611ac7565b9392505050565b7f4e487b7100000000000000000000000000000000000000000000000000000000600052603260045260246000fd5b7f4e487b7100000000000000000000000000000000000000000000000000000000600052601160045260246000fd5b600061266782611a51565b91507fffffffffffffffffffffffffffffffffffffffffffffffffffffffffffffffff82036126995761269861262d565b5b600182019050919050565b7f417373657420416c726561647920546f6b656e697a6564000000000000000000600082015250565b60006126da601783611be4565b91506126e5826126a4565b602082019050919050565b60006020820190508181036000830152612709816126cd565b9050919050565b6000602082019050612725600083018461259d565b92915050565b6000608082019050612740600083018761259d565b61274d6020830186611ac7565b61275a6040830185611ac7565b6127676060830184611ac7565b95945050505050565b600061277b82611a51565b915061278683611a51565b925082820190508082111561279e5761279d61262d565b5b92915050565b600060408201905081810360008301526127be81856121ca565b905081810360208301526127d281846121ca565b90509392505050565b600081519050919050565b600082825260208201905092915050565b6000612802826127db565b61280c81856127e6565b935061281c818560208601611bf5565b61282581611c1f565b840191505092915050565b600060a082019050612845600083018861259d565b612852602083018761259d565b61285f6040830186611ac7565b61286c6060830185611ac7565b818103608083015261287e81846127f7565b90509695505050505050565b60008151905061289981611b1d565b92915050565b6000602082840312156128b5576128b46119e9565b5b60006128c38482850161288a565b91505092915050565b600060a0820190506128e1600083018861259d565b6128ee602083018761259d565b818103604083015261290081866121ca565b9050818103606083015261291481856121ca565b9050818103608083015261292881846127f7565b9050969550505050505056fea2646970667358221220be30985e860c197c598f6925d8aac26070335eead231fcc044810dec0c10c3b764736f6c63430008140033",
  "linkReferences": {},
  "deployedLinkReferences": {}
}